:10013F0014083F065B4F666D7D077F6F0000000060
:06014F00000000000000AA
:0301560012008F05
:040159007F6EDFFED8
:01015D00227F
:10008F00EF14B4080050549000A475F003A4C58376
:10009F0025F0C583730200BC0200C00200C4020039
:1000AF00C80200CC0200D40200DC0200E4D2A4801B
:1000BF000ED2A48012D2A48016D2A4801AC2A4D2C7
:1000CF00A3D2A28016C2A4D2A3C2A2800EC2A4C27F
:1000DF00A3D2A28006C2A4C2A3C2A274082DF8E6BE
:0600EF00F580E4F580221B
:1000F5007D017C007F011201567D037F02120156AE
:100105007D017F0312008F1201597D047F041200C7
:100115008F1201590D7F0512008F1201597D027F43
:100125000612008F1201591D7F0712008F12015907
:0A0135007F0812008F12015980B6F6
:03000000020003F8
:0C000300787FE4F6D8FD75811B02004AEE
:10000F000200F5E493A3F8E493A34003F68001F212
:10001F0008DFF48029E493A3F85407240CC8C333F2
:10002F00C4540F4420C8834004F456800146F6DFC1
:10003F00E4800B010204081020408090013FE47E11
:10004F00019360BCA3FF543F30E509541FFEE493B6
:10005F00A360010ECF54C025E060A840B8E493A37D
:10006F00FAE493A3F8E493A3C8C582C8CAC583CAA8
:10007F00F0A3C8C582C8CAC583CADFE9DEE780BE60
:0101550000A9
:00000001FF
