:1002130014083F065B4F666D7D077F6F000000008B
:06022300000000000000D5
:0401F6007F147E00F4
:0A01FA00EF1FAC0670011E4C600EF2
:0C020400751D0B751EBED51EFDD51DFA24
:0302100080E82261
:10019300EF14B4080050549001A875F003A4C5836C
:1001A30025F0C583730201C00201C40201C8020124
:1001B300CC0201D00201D80201E00201E8D2A480FE
:1001C3000ED2A48012D2A48016D2A4801AC2A4D2C2
:1001D300A3D2A28016C2A4D2A3C2A2800EC2A4C27A
:1001E300A3D2A28006C2A4C2A3C2A274082DF8E6B9
:0301F300F5802272
:100003007590FFC29320970C1201F63097FD1201F1
:10001300F67F012220960C1201F63097FD1201F6AD
:100023007F052220950C1201F63097FD1201F67F11
:1000330009222094091201F63097FD0200BD759044
:10004300FFC29220970C1201F63097FD1201F67F42
:10005300022220960C1201F63097FD1201F67F065C
:100063002220950C1201F63097FD1201F67F0A2229
:1000730020940C1201F63097FD1201F67F0E2275C3
:1000830090FFC29120970C1201F63097FD1201F6F2
:100093007F032220960C1201F63097FD1201F67FA2
:1000A300072220950C1201F63097FD1201F67F0B03
:1000B3002220940C1201F63097FD1201F67F0D22D7
:1000C3007590FFC29020970C1201F63097FD120134
:1000D300F67F042220960C1201F63097FD1201F6EA
:1000E3007F082220950C1201F63097FD1201F67F4E
:1000F3000C2220940C1201F63097FD1201F67F10AA
:04010300227F002235
:10022A001200038F1CE51C60F7FD7C007F011201A0
:01023A009330
:02023B0080ED54
:03000000020107F3
:0C010700787FE4F6D8FD75811E02014EE1
:1001130002022AE493A3F8E493A34003F68001F2D6
:1001230008DFF48029E493A3F85407240CC8C333ED
:10013300C4540F4420C8834004F456800146F6DFBC
:10014300E4800B0102040810204080900213E47E37
:10015300019360BCA3FF543F30E509541FFEE493B1
:10016300A360010ECF54C025E060A840B8E493A378
:10017300FAE493A3F8E493A3C8C582C8CAC583CAA3
:10018300F0A3C8C582C8CAC583CADFE9DEE780BE5B
:0102290000D4
:00000001FF
